{
    "contractName": "HealthRecord",
    "abi": [
        {
            "inputs": [
                {
                    "internalType": "uint256",
                    "name": "",
                    "type": "uint256"
                }
            ],
            "name": "Patient",
            "outputs": [
                {
                    "internalType": "uint256",
                    "name": "pid",
                    "type": "uint256"
                },
                {
                    "internalType": "string",
                    "name": "patientName",
                    "type": "string"
                },
                {
                    "internalType": "uint256",
                    "name": "age",
                    "type": "uint256"
                },
                {
                    "internalType": "string",
                    "name": "gender",
                    "type": "string"
                },
                {
                    "internalType": "uint256",
                    "name": "phNo",
                    "type": "uint256"
                },
                {
                    "internalType": "string",
                    "name": "bloodType",
                    "type": "string"
                },
                {
                    "internalType": "string",
                    "name": "location",
                    "type": "string"
                }
            ],
            "stateMutability": "view",
            "type": "function"
        },
        {
            "inputs": [
                {
                    "internalType": "uint256",
                    "name": "",
                    "type": "uint256"
                }
            ],
            "name": "Records",
            "outputs": [
                {
                    "internalType": "uint256",
                    "name": "pid",
                    "type": "uint256"
                },
                {
                    "internalType": "string",
                    "name": "hospitalName",
                    "type": "string"
                },
                {
                    "internalType": "string",
                    "name": "doctorName",
                    "type": "string"
                },
                {
                    "internalType": "string",
                    "name": "speciality",
                    "type": "string"
                },
                {
                    "internalType": "string",
                    "name": "referredBy",
                    "type": "string"
                },
                {
                    "internalType": "string",
                    "name": "complaints",
                    "type": "string"
                },
                {
                    "internalType": "string",
                    "name": "investigatinAdvise",
                    "type": "string"
                },
                {
                    "internalType": "string",
                    "name": "medicineAdvice",
                    "type": "string"
                }
            ],
            "stateMutability": "view",
            "type": "function"
        },
        {
            "inputs": [],
            "name": "getpid",
            "outputs": [
                {
                    "internalType": "uint256",
                    "name": "",
                    "type": "uint256"
                }
            ],
            "stateMutability": "view",
            "type": "function"
        },
        {
            "inputs": [
                {
                    "internalType": "string",
                    "name": "_patientName",
                    "type": "string"
                },
                {
                    "internalType": "uint256",
                    "name": "_age",
                    "type": "uint256"
                },
                {
                    "internalType": "string",
                    "name": "_gender",
                    "type": "string"
                },
                {
                    "internalType": "uint256",
                    "name": "_phNo",
                    "type": "uint256"
                },
                {
                    "internalType": "string",
                    "name": "_bloodType",
                    "type": "string"
                },
                {
                    "internalType": "string",
                    "name": "_location",
                    "type": "string"
                }
            ],
            "name": "insertPatient",
            "outputs": [],
            "stateMutability": "nonpayable",
            "type": "function"
        },
        {
            "inputs": [
                {
                    "internalType": "uint256",
                    "name": "_pid",
                    "type": "uint256"
                },
                {
                    "internalType": "string",
                    "name": "_hospitalName",
                    "type": "string"
                },
                {
                    "internalType": "string",
                    "name": "_doctorName",
                    "type": "string"
                },
                {
                    "internalType": "string",
                    "name": "_speciality",
                    "type": "string"
                },
                {
                    "internalType": "string",
                    "name": "_referredBy",
                    "type": "string"
                },
                {
                    "internalType": "string",
                    "name": "_complaints",
                    "type": "string"
                },
                {
                    "internalType": "string",
                    "name": "_investigatinAdvise",
                    "type": "string"
                },
                {
                    "internalType": "string",
                    "name": "_medicineAdvice",
                    "type": "string"
                }
            ],
            "name": "insertRecord",
            "outputs": [],
            "stateMutability": "nonpayable",
            "type": "function"
        },
        {
            "inputs": [],
            "name": "pid",
            "outputs": [
                {
                    "internalType": "uint256",
                    "name": "",
                    "type": "uint256"
                }
            ],
            "stateMutability": "view",
            "type": "function"
        }
    ],
    "bytecode": "60806040526103e860005534801561001657600080fd5b50610f41806100266000396000f3fe608060405234801561001057600080fd5b50600436106100625760003560e01c806316feffa21461006757806328b7a10b1461007e5780633b7ebeb0146100a45780635798285e146100b957806366da29a2146100cc578063f1068454146100f3575b600080fd5b6000545b6040519081526020015b60405180910390f35b61009161008c3660046109a7565b6100fc565b6040516100759796959493929190610a06565b6100b76100b2366004610b16565b610357565b005b6100b76100c7366004610bd5565b610426565b6100df6100da3660046109a7565b61059b565b604051610075989796959493929190610cfa565b61006b60005481565b6002602052600090815260409020805460018201805491929161011e90610d9b565b80601f016020809104026020016040519081016040528092919081815260200182805461014a90610d9b565b80156101975780601f1061016c57610100808354040283529160200191610197565b820191906000526020600020905b81548152906001019060200180831161017a57829003601f168201915b5050505050908060020154908060030180546101b290610d9b565b80601f01602080910402602001604051908101604052809291908181526020018280546101de90610d9b565b801561022b5780601f106102005761010080835404028352916020019161022b565b820191906000526020600020905b81548152906001019060200180831161020e57829003601f168201915b50505050509080600401549080600501805461024690610d9b565b80601f016020809104026020016040519081016040528092919081815260200182805461027290610d9b565b80156102bf5780601f10610294576101008083540402835291602001916102bf565b820191906000526020600020905b8154815290600101906020018083116102a257829003601f168201915b5050505050908060060180546102d490610d9b565b80601f016020809104026020016040519081016040528092919081815260200182805461030090610d9b565b801561034d5780601f106103225761010080835404028352916020019161034d565b820191906000526020600020905b81548152906001019060200180831161033057829003601f168201915b5050505050905087565b6040805160e0810182526000805480835260208084018b81528486018b9052606085018a90526080850189905260a0850188905260c085018790529183526002905292902081518155915190919060018201906103b49082610e24565b5060408201516002820155606082015160038201906103d39082610e24565b506080820151600482015560a082015160058201906103f29082610e24565b5060c082015160068201906104079082610e24565b50506000805491508061041983610ee4565b9190505550505050505050565b61046e60405180610100016040528060008152602001606081526020016060815260200160608152602001606081526020016060815260200160608152602001606081525090565b8881526020810188815260408201889052606082018790526080820186905260a0820185905260c0820184905260e08201839052600180548082018255600091909152825160089091027fb10e2d527612073b26eecdfd717e6a320cf44b4afac2b0732d9fcbe2b7fa0cf68101918255915183927fb10e2d527612073b26eecdfd717e6a320cf44b4afac2b0732d9fcbe2b7fa0cf7019061050f9082610e24565b50604082015160028201906105249082610e24565b50606082015160038201906105399082610e24565b506080820151600482019061054e9082610e24565b5060a082015160058201906105639082610e24565b5060c082015160068201906105789082610e24565b5060e0820151600782019061058d9082610e24565b505050505050505050505050565b600181815481106105ab57600080fd5b600091825260209091206008909102018054600182018054919350906105d090610d9b565b80601f01602080910402602001604051908101604052809291908181526020018280546105fc90610d9b565b80156106495780601f1061061e57610100808354040283529160200191610649565b820191906000526020600020905b81548152906001019060200180831161062c57829003601f168201915b50505050509080600201805461065e90610d9b565b80601f016020809104026020016040519081016040528092919081815260200182805461068a90610d9b565b80156106d75780601f106106ac576101008083540402835291602001916106d7565b820191906000526020600020905b8154815290600101906020018083116106ba57829003601f168201915b5050505050908060030180546106ec90610d9b565b80601f016020809104026020016040519081016040528092919081815260200182805461071890610d9b565b80156107655780601f1061073a57610100808354040283529160200191610765565b820191906000526020600020905b81548152906001019060200180831161074857829003601f168201915b50505050509080600401805461077a90610d9b565b80601f01602080910402602001604051908101604052809291908181526020018280546107a690610d9b565b80156107f35780601f106107c8576101008083540402835291602001916107f3565b820191906000526020600020905b8154815290600101906020018083116107d657829003601f168201915b50505050509080600501805461080890610d9b565b80601f016020809104026020016040519081016040528092919081815260200182805461083490610d9b565b80156108815780601f1061085657610100808354040283529160200191610881565b820191906000526020600020905b81548152906001019060200180831161086457829003601f168201915b50505050509080600601805461089690610d9b565b80601f01602080910402602001604051908101604052809291908181526020018280546108c290610d9b565b801561090f5780601f106108e45761010080835404028352916020019161090f565b820191906000526020600020905b8154815290600101906020018083116108f257829003601f168201915b50505050509080600701805461092490610d9b565b80601f016020809104026020016040519081016040528092919081815260200182805461095090610d9b565b801561099d5780601f106109725761010080835404028352916020019161099d565b820191906000526020600020905b81548152906001019060200180831161098057829003601f168201915b5050505050905088565b6000602082840312156109b957600080fd5b5035919050565b6000815180845260005b818110156109e6576020818501810151868301820152016109ca565b506000602082860101526020601f19601f83011685010191505092915050565b87815260e060208201526000610a1f60e08301896109c0565b8760408401528281036060840152610a3781886109c0565b905085608084015282810360a0840152610a5181866109c0565b905082810360c0840152610a6581856109c0565b9a9950505050505050505050565b634e487b7160e01b600052604160045260246000fd5b600082601f830112610a9a57600080fd5b813567ffffffffffffffff80821115610ab557610ab5610a73565b604051601f8301601f19908116603f01168101908282118183101715610add57610add610a73565b81604052838152866020858801011115610af657600080fd5b836020870160208301376000602085830101528094505050505092915050565b60008060008060008060c08789031215610b2f57600080fd5b863567ffffffffffffffff80821115610b4757600080fd5b610b538a838b01610a89565b9750602089013596506040890135915080821115610b7057600080fd5b610b7c8a838b01610a89565b9550606089013594506080890135915080821115610b9957600080fd5b610ba58a838b01610a89565b935060a0890135915080821115610bbb57600080fd5b50610bc889828a01610a89565b9150509295509295509295565b600080600080600080600080610100898b031215610bf257600080fd5b88359750602089013567ffffffffffffffff80821115610c1157600080fd5b610c1d8c838d01610a89565b985060408b0135915080821115610c3357600080fd5b610c3f8c838d01610a89565b975060608b0135915080821115610c5557600080fd5b610c618c838d01610a89565b965060808b0135915080821115610c7757600080fd5b610c838c838d01610a89565b955060a08b0135915080821115610c9957600080fd5b610ca58c838d01610a89565b945060c08b0135915080821115610cbb57600080fd5b610cc78c838d01610a89565b935060e08b0135915080821115610cdd57600080fd5b50610cea8b828c01610a89565b9150509295985092959890939650565b60006101008a8352806020840152610d148184018b6109c0565b90508281036040840152610d28818a6109c0565b90508281036060840152610d3c81896109c0565b90508281036080840152610d5081886109c0565b905082810360a0840152610d6481876109c0565b905082810360c0840152610d7881866109c0565b905082810360e0840152610d8c81856109c0565b9b9a5050505050505050505050565b600181811c90821680610daf57607f821691505b602082108103610dcf57634e487b7160e01b600052602260045260246000fd5b50919050565b601f821115610e1f57600081815260208120601f850160051c81016020861015610dfc5750805b601f850160051c820191505b81811015610e1b57828155600101610e08565b5050505b505050565b815167ffffffffffffffff811115610e3e57610e3e610a73565b610e5281610e4c8454610d9b565b84610dd5565b602080601f831160018114610e875760008415610e6f5750858301515b600019600386901b1c1916600185901b178555610e1b565b600085815260208120601f198616915b82811015610eb657888601518255948401946001909101908401610e97565b5085821015610ed45787850151600019600388901b60f8161c191681555b5050505050600190811b01905550565b600060018201610f0457634e487b7160e01b600052601160045260246000fd5b506001019056fea26469706673582212202dd624dec933aeab939ec30dddbad5cb6ea6bdbe469abacbe9bda275888c338964736f6c63430008130033",
    "sourcePath": "c:/MyProjects/ehr/Electronic-Health-Records-EHRs-master/contracts/HealthRecord.sol",
    "compiler": {
        "name": "solc",
        "version": "0.8.19+commit.7dd6d404"
    },
    "functionHashes": {
        "Patient(uint256)": "28b7a10b",
        "Records(uint256)": "66da29a2",
        "getpid()": "16feffa2",
        "insertPatient(string,uint256,string,uint256,string,string)": "3b7ebeb0",
        "insertRecord(uint256,string,string,string,string,string,string,string)": "5798285e",
        "pid()": "f1068454"
    },
    "gasEstimates": {
        "creation": {
            "codeDepositCost": "781000",
            "executionCost": "22924",
            "totalCost": "803924"
        },
        "external": {
            "Patient(uint256)": "infinite",
            "Records(uint256)": "infinite",
            "getpid()": "2248",
            "insertPatient(string,uint256,string,uint256,string,string)": "infinite",
            "insertRecord(uint256,string,string,string,string,string,string,string)": "infinite",
            "pid()": "2372"
        }
    }
}